{
  "contractName": "Blah",
  "abi": [
    {
      "constant": true,
      "inputs": [],
      "name": "blahblahblah",
      "outputs": [
        {
          "internalType": "uint256",
          "name": "",
          "type": "uint256"
        }
      ],
      "payable": false,
      "stateMutability": "view",
      "type": "function"
    }
  ],
  "bytecode": "0x6080604052348015600f57600080fd5b5060848061001e6000396000f3fe6080604052348015600f57600080fd5b506004361060285760003560e01c80639c04278414602d575b600080fd5b60336049565b6040518082815260200191505060405180910390f35b6000548156fea265627a7a72315820c40e094d41d5c4b6410d08413cdac34423be9ce23dd4c8e91fa0dea98d979c0764736f6c63430005100032",
  "source": "pragma solidity ^0.5.16;\n\ncontract Blah{\n    uint public blahblahblah;\n}",
  "sourcePath": "/home/mihir/Desktop/blockchain-batch-2/truffle-tut/contracts/BlahBlah.sol",
  "compiler": {
    "name": "solc",
    "version": "0.5.16+commit.9c3226ce.Emscripten.clang"
  },
  "schemaVersion": "3.4.0",
  "updatedAt": "2021-06-11T05:06:48.140Z",
  "networkType": "ethereum",
  "devdoc": {
    "methods": {}
  },
  "userdoc": {
    "methods": {}
  }
}